:40000000008000201100000089D0000089D0000010B50DF059F8C04610B51222414B1A6030200FF0E9FC404A404B1A60404A116802230B4313603F4A3F4B1A6000223F4B60
:400040001A603F4A136808218B431360FA20C0000FF084FDC0B2002802D001200CF0D4FF38480FF0BFFC384A384B1A60384B394A1A60B822520138490A6038491960384916
:400080000A603849196038490A603849196038490A60384A1A60FE22120237490A603749196037490A60374A1A60CF210902364A1160364A1A60E0210901354A1160354AB4
:4000C0001A608222344B1A6082221206334B1A604822334B1A60033A324B1A600132324B1A60033A314B1A600132314B1A60043A304B1A600132304B1A6006322F4B1A6092
:40010000053A2F4B1A602F4908200FF01BFC08200FF0E8FB00222C4B1A601132014B1A6010BDC046300010400600008004010B4078002E402D3E00007C002E4064F02E408A
:400140006CF02E40DC050000005F0900200301400000014048FF00801403014045FF00801803014046FF00800C03014043FF00801003014044FF00800003014040FF008097
:400180000403014041FF00801C03014047FF00800803014042FF008000010B4008010B402C01014024010140200101401C0101401801014014010140100101400801014084
:4001C0000401014041FE00000C020B4010B572B60022494B1A600132484B1A7000240FE047486200131959000B00411889881A5AC3185888000410430CF040FF0134E4B22A
:40020000012CEDD93E490C313E482C300CF0FEFE8022D2023C4B1A60CC2292033B4B1A603B4A3C4B1A603C4A3C4B1A6080223C4B1A6019323B4B1A6099231B043A4A136066
:40024000A1210906394A1160394A136087210904384A1160384A1360384A1360C0221205374B1A600223374A1360374A1360374802783C218A4314210A43D2B20270344917
:40028000087816220243D2B20A703E21314A1160EC21C902304A11600F2230490A601F202F4908602F483049086030490A6030483049086030490A602321304A11603049E3
:4002C000304A11600821304A1160304A136028312F4A11602F392F4A11602F4A136030312E4A11602E4A136036222E4B1A60FFF793FE0CF0A5FE10BD6CF02E401C700F4079
:4003000048600200C860020014000B40000002403333080000010240EE00300000030240000402400005024000500F4008500F4010500F4018500F4020500F4030500F406D
:4003400038500F402000104000800F4001700F4000700F4000000440080004401800044000010440B66DDB0008010440000204400080C400080204401802044000030440EF
:40038000A461DB0008030440180304400004044008040440180404400005044008050440180504400806044010B5064C2378002B07D1054B002B02D0044800E000BF012359
:4003C000237010BD6829002000000000183B0200084B10B5002B03D00749084800E000BF07480368002B00D110BD064B002BFBD09847F9E7000000006C290020183B0200AF
:40040000681000200000000070B5002A2BD07F2808D9032300E0013BDC000500E540FAD09C1C01E000230124002905D01568AC4202D9146003201BE01460002907D114E020
:40044000E21A013ADD000600EE408E54013B002BF6DA012C0BD9013CE4B280235B421C430C70002004E0022002E0002000E0002070BDC046F0B5474680B486B005000F0011
:400480001E0005230393002864D00C9B002B63D0002963D0002A09D00023C356002B07DA0123984600241EE0013402E0002400E000243B1B012B11D92B5D002B04D12A19BE
:4004C000527852B2002AEFDAFF2B0AD12B195B785BB2002BE8DB0023984604E00023984601E0002398464346D819001B03AA04A9FFF78AFF002834D1039BFB1843441B1B53
:400500000133002E08D00C9A12680192934203D90C9A1360033024E00C9A1360002E1FD002233370701C039A04A911F038FA4346002B04D0039B0133F31800221A70039B17
:40054000434418000130301829193A1B11F027FA002006E0022004E0022002E0022000E0002006B004BC9046F0BDC046F0B585B005000C001600002303930293002846D0EC
:40058000002A46D003AB0093002301222021FFF771FF002840D12F00203702AB00930023012220213800FFF765FF002834D1039B029A944663440533002C05D03268934225
:4005C00002D93360033027E03360002C23D003222270DBB29A1E62700022A2703032E270053B2371631D03AA0092012220212800FFF740FF00280FD1039B0533E31802AA12
:400600000092012220213800FFF734FF04E0022002E0022000E0002005B0F0BD70B5049C03252840002C03D1E22001F037FA1BE0002807D0022805D0012803D0E22001F096
:400640002DFA11E00025258007352B40012804D8D20013432380002006E0C90089B20B43120213432380002070BDC04610B5002801D0002B03D1E22001F010FA5DE04068CA
:4006800040684078002816D1012908D0002902D0022908D00BE058221A6000204DE040221A60002049E020221A60002045E0E22001F0F4F941E0042816D1012908D000293A
:4006C00002D0022908D00BE058221A60002034E000221A60002030E020221A6000202CE0E22001F0DBF928E0012908D0002902D0022908D01EE080221A6000201DE04022F6
:400700001A60002019E0072A03D824221A60002013E0082A04D19932FF321A6000200CE00F2A03D848221A60002006E0E22001F0B5F902E0E22001F0B1F910BD30B5B3B08B
:40074000051E09D03698002806D03798002803D0C80705D4002B03D1E22001F09FF930E02C686846C1708280002B05D020221900063011F014F904E020220021063011F013
:400780002CF9202236992620684411F008F90D2237994620684411F002F96946200000F03DF8041E03D001F079F9200009E02900684600F02BF9041E03D001F06FF9200054
:4007C000FFE733B030BDC046F0B50024002613E08B5D2B405F1EBB41DBB2E70B6400A4B2BB4202D0074B5C40A4B26D00EDB200E00125002DECD101368642F9D31470240ACA
:400800005470F0BD0580FFFF10B54378023BDBB2411CCA181800FFF7D7FF10BD10B528238B702C334B700800FFF7EEFF002010BD10B515238B70CB78032B02D124334B703F
:4008400006E0002A02D00B234B7001E007234B700800FFF7D9FF002010BDC04610B540238B70CB78DB0602D50A234B7001E007234B700800FFF7C8FF002010BD10B5CA7899
:400880000323134016208870012B02D81B234B700DE0032B07D1930602D547234B7006E027234B7003E0E22001F0F8F803E00800FFF7AAFF002010BD10B502238B700533C5
:4008C0004B700800FFF7A0FF002010BD70B582B005000478023CE4B201AE320001002000FFF772FF32782B5D9A4207D101AB5A782C1963789A4203D0E52002E0E52000E09F
:40090000002002B070BDC0460378042B29D14378072B1AD008D8012B25D0002B0FD0032B0FD0052B0FD01AE00F2B12D002D8082B0DD014E0112B0ED0FF2B0ED00FE00020EB
:4009400012E0D22010E0D6200EE0D7200CE0FA200AE0F42008E0F32006E0D42004E0E12002E0002000E0D1207047C04670B50B78042B17D89B001F4AD3589F460E261E4D01
:400980001EE013261C4D4C351AE014261B4D183516E04B78282B0CD0682B0ED11626174D68350DE0002600250AE00526124D383506E01626124D403502E01626114D1835BE
:4009C00001235B424B80002309E09A00AA181478844202D153884B8003E00133DBB2B342F3D34A88084B9A4201D0002000E0F22070BDC046243B0200383B0200B83B0200F7
:400A0000383C0200B83C0200FFFF0000F0B583B006000D0080780968FFF7A8FF002840D12B685F88686801F0C7F8041E35D1686843681B78002B01D0FF2100E003217378E7
:400A4000320001F0A1F8041E27D1380000F076FF0636C0220021300010F0BFFF6B460633C0221A8032000021686801F099F8041E13D16B4606331B88032B03D8002B0BD029
:400A8000E6340AE03000FFF721FF041E05D13000FFF73AFF040000E0E724686801F0A0F8200003B0F0BDC04670B5B2B0050036A80078002D03D0002805D0002B03D1E220E7
:400AC00000F0ECFF31E02C686E46F170B280032908D11F2806D920221900B01D10F05FFF00220EE0022909D1032809D9042219006B46981D10F053FF012202E0002200E05E
:400B0000002269462000FFF793FE041E03D000F0C5FF200009E029006846FFF777FF041E03D000F0BBFF2000FFE732B070BDC04630B5B3B0051E04D1E22000F0AFFF0400AA
:400B40002EE004686846C1708280002B04D003221900063010F023FF69462000FFF77EFE041E02D000F09AFF1AE029006846FFF74DFF041E02D000F091FF11E0369B002B53
:400B80000ED06B469B79432B06D140226B46D91D369810F004FF03E0E62000F07FFF0400200033B030BDC04600B583B0009200230A000021FFF7BCFF03B000BD70B5B2B0B2
:400BC000050003200840002D03D1E22000F066FF43E02C686E46F170B280012805D814221900B01D10F0DBFE13E003280DD18A0605D540221900B01D10F0D1FE09E020228C
:400C00001900B01D10F0CBFE03E0E22000F046FF23E069462000FFF731FE041E03D000F03DFF200019E029006846FFF7EFFE041E03D000F033FF20000FE0369B002B0BD003
:400C40006B469B79222B08D920226B46D91D369810F0A5FE200000E0FFE732B070BDC04600B583B00B00009200220021FFF7A6FF03B000BDF0B5B7B006000F0011001A000D
:400C80003CAB1B783EA80578002E02D03D98002804D1E22000F002FF040036E0042D06D0202D04D0E22000F0F9FE04002DE00E20684400903800FFF7B1FC041E02D000F02D
:400CC000EDFE22E0202D03D180235B421F43FFB204A9CF700E236B441B888B803068FFF7EBFD041E02D000F0D9FE0EE0310004A8FFF78CFE041E02D000F0D0FE05E02A00DC
:400D0000172169443D9810F04AFE200037B0F0BD30B58DB00D1E03D1E22000F0BFFE1AE02023029304AB01930023009300220021FFF7A0FF041E03D000F0B0FE20000AE0ED
:400D4000042204A9280010F02AFE281D052206A910F025FE20000DB030BDC046F0B5BDB00590069107921E0042AB80CB1D881422002137A810F031FE2022002109A810F0F7
:400D80002CFE00230893002E01D0002F04D1E22000F084FE04007DE02023029311AB019300230093002200210598FFF763FF041E02D000F073FE6DE0052213A912A810F01E
:400DC000F7FD09AA37A90598FFF74AFF041E02D000F064FE5EE019AC44220021200010F0FCFD1022002133A810F0F7FD37AB349309AB3593369433A800F0E0FA041E02D0FD
:400E000000F04CFE46E008AB15221A70133A5A709D702A0ADA70042200922A0002210598FFF742FE041E02D000F038FE32E02AAC24220021200010F0D0FD658011AB6361A9
:400E4000A7610223237008ABE36119AB2362200000F062FB041E02D000F020FE1AE020230293019600230093079B069A82210598FFF700FF041E0AD000F010FE0AE0F11880
:400E8000087819AAD25C42400A70013300E000231F2BF4DD20003DB0F0BDC046F0B58DB006000D00171E03D1E22000F0F7FD54E00B00083B9BB2072B03D9E22000F0EEFD15
:400EC0004BE02023029304AB0193002300930A000221FFF7CFFE041E03D000F0DFFD20003BE01C2205A9380010F059FD2023029304AB01930023009301332A00022130000E
:400F0000FFF7B8FE041E03D000F0C8FD200024E038001C3004AC0422210010F040FD38002030182206A910F03AFD2023029301940023009302332A0002213000FFF79AFE74
:400F4000041E03D000F0AAFD200006E038003830082204A910F023FD20000DB0F0BDC046F0B55F4656464D464446F0B493B00790059106929B461D9B9A460023119302299E
:400F800003D9E22000F08AFD78E0059B022B06D1069B0F2B03D9E22000F080FD6EE05346002B6AD01C9B002B03D1E22000F076FD64E011AB069A05990798FFF757FB051E0B
:400FC000804603D000F06AFD280057E053465B44119A934203D9E22000F060FD4EE05B465B09994620240026002542E0202C0BD14B465B01119AD31A1F2B05D85B46EE1881
:40100000B60807231E401C3C4B466A46D374D37CF2B2029409A901910092069A05990798FFF728FE8046002803D000F037FD404624E04B46D900891989008B4502D95B46E2
:40104000591A00E0002153465B1B671ABB4200D21F001C9B581909AB9C4661443A0010F09EFCED19202C03D101239C46E14400E001365545BAD3404600E0002013B03CBC77
:4010800090469946A246AB46F0BDC046F0B55F4656464D464446F0B4CFB0002399468C4682469046B5E04B469801604400230DE0D91CC45C0EAA54549C1CC1184D781555AF
:4010C0005C1C8D781555C978D15404333F2BEFDD102428E023000F3B0EAD9B00595907230A00DA410B330800D8414240C9084A40A31E9B00595911230800D84102330E0054
:40110000DE4133004340890A4B4018002300103B9B005B59D218E31F9B00595952188318A200535101343F2CD4D90023504607E01A002232920011589A0006AC115101332B
:40114000072BF5DD00264B460593834649E0069B02221900D1410B321800D041414016221F00D7414F40079A100011001940089D2A001A40514001902840414079180A9AD1
:4011800006201700C74105301400C4412000784019271400FC41270004007C400B9F029717400C980390904378400D9F0497B9464C440019B4001C4FE759C0190EAFE759CC
:4011C000C019039C0D94029F0C970B92099C029402190A920995019A089207930818069001363F2EB3DD059B9946002258460AE0930006A95958130022339B001C58A24631
:40120000514419500132072AF2DD824601239B46D944C14500D246E74FB03CBC90469946A246AB46F0BDC046283D020010B50400A822002110F0D1FB002307E09900054A7D
:4012400089581A002232920011510133072BF5DD10BDC046283E0200F0B5474680B482B005000C00170040684026361A964200D91600083028183200210010F090FB6B68AA
:40128000FB183F2B01D86B6021E008239C46AC4463460122019361462800FFF7F7FEBA1B90469709A1193A002800FFF7EFFE7B1C9B012A68944663442B603F2241460A40A8
:4012C0006A60B90171186118019810F068FB02B004BC9046F0BDC046F8B504000D0040682368C6182660F60009235B421B1A3F271F40431C6360231880221A720930201867
:401300003A1D002110F069FB6368FB181A1D591D300EA21810729A1D300C61180872D91D300AA218107208331A00636063181E722100083192092000FFF7A8FE00200FE097
:4013400081005118030022339B001E5D6E54013A1959090A195100E00322002AF0DA01300728F9DDF8BDC04610B5FFF75FFF002010BDC04610B5FFF76FFF002010BDC04617
:4013800010B5FFF7A9FF002010BDC04670B5B0B004000E0015006846FFF7E6FF00280AD1320021006846FFF7E5FF002803D129006846FFF7E5FF30B070BDC04630B58FB0E0
:4013C0000400027803231340C068002800D19AE06168002900D198E0012B44D8A168002900D194E00222A35E002B03DA202210F0D6FA32E02022684610F0D1FA1422616856
:4014000008A810F0CCFA162234236946CA5422780133CA5400220133CA54E26837216846FFF7B4FFE1684023CA5C10208243CA54E168CA5C01388243CA54E168CA5C113061
:401440008243CA54E168CA5C5F300240CA54E3684033597801220A435A70E26800214223D154002056E0032B53D13C3315009D432DD1930607D5402210F091FA0122422379
:40148000E168CA5406E0202210F089FA00224223E168CA54E1684023C85C10220243CA54E168CA5C0F208243CA54E168CA5C11308243CA54E168CA5C5F300240CA54E3680A
:4014C0004033597801220A435A70002022E04023C15C10220A43C254E168CA5C0F208243CA54E168CA5C11308243CA54E168CA5C5F300240CA54E36840335A7801218A4346
:401500005A70002006E0E22004E0E22002E0E22000E0E2200FB030BD30B599B004004369002B00D1E8E0016A002900D1E6E00378022B03D88269002A00D1E1E0032B04D088
:40154000022B06D1227C002A03D0E269002A00D1D8E0052B00D9D7E0032B0ED10222A35E002B04DA2022684610F019FA14E02022E169684610F013FA0EE0043BDBB2012BAF
:4015800005D820220021684610F027FA04E02022A169684610F003FA2378022B08D1237C002B05D00422E16908A810F0F8F914E0152220236946CA5423780C328B54A178E4
:4015C000013268468154032B03D100222033C25403E063881B0A232283546369197A2422684681541978013281545A782623C2542378042B14D100222333C254E3682832C5
:401600008354190A01328154190C013281541B0E01328354173A00210BA810F0DEF920E0052B18D100222233C254A388283283541B0A01328354E388013283541B0A01324E
:401640008354227A2C23C254132200212D20684410F0C3F905E0192200212720684410F0BCF92378032B09D10222A35E002B05DA2022E16910A810F092F904E02022216A4C
:4016800010A810F08CF9226A60216846FFF77EFE236A4033597801220A435A702378022B1DD163880F2B1AD8226A4021505C202303435354206A63880F221A40435C0F254C
:4016C000AB4313434354237C002B1FD0216A40228B5C8020404203438B54002017E0216A4023CA5C20208243CA54216ACA5C11388243CA5400200AE0E22008E0E22006E034
:40170000E22004E0E22002E0E22000E0002019B030BDC046052807D8002907D08000044BC3580B60002002E0E22000E0E22070476C10002010B5002805D0002905D000784F
:40174000FFF7E8FF02E0E22000E0E22010BDC04610B582B00C0001A9FFF7DCFF002807D1019BDB69002B02D02000984700E0E22002B010BD054B196058225A7200225A7439
:40178000C36801321A7100207047C04684290020C36800221A7100207047C04610B5034B186807F0AFFA002010BDC0468429002000207047F8B5151E27D0002B27D00322F9
:4017C0002A705C1C134E306807F008FBB0821148818A006807F016FB0028F8D00D4E371D3900306807F0B2FAA2B22900306807F0D1FA3068390007F0BBFA064B998A186883
:4018000007F000FB0028F8D102E0E22000E00020F8BDC04684290020F8B514001D00002A24D0002B24D0134E306807F0D7FAB082104B998A186807F0E5FA0028F8D00D4E2C
:40184000371D3900306807F081FA2A882100306807F0B2FA3068390007F08AFA054B998A186807F0CFFA0028F8D102E0E22000E0E220F8BD8429002010B5034B186807F001
:4018800053FA002010BDC0468429002030B583B002226B46DA71124C206807F09FFAA0820F4B998A186807F0ADFA0028F8D00C4C251D2900206807F049FA01226B46D91D71
:4018C000206807F067FA2068290007F051FA044B998A186807F096FA0028F8D103B030BD8429002030B583B001226B46DA71124C206807F073FAA0820F4B998A186807F0A7
:4019000081FA0028F8D00C4C251D2900206807F01DFA01226B46D91D206807F03BFA2068290007F025FA044B998A186807F06AFA0028F8D103B030BD8429002010B50EF030
:4019400039F810BD10B580B20EF04CF810BDC04670B582B004222D49684610F020F803244CE02B4D286807F039FAA882284B998A186807F047FA0028F8D0254D29000C31DF
:40198000286807F0E3F9FA208000FFF7DBFF2B68DA68138851888B4201D0013313801C4D286807F01BFAA882194B998A186807F029FA0028F8D0164D2E1D3100286807F006
:4019C000C5F9042201A9286807F0F6F92868310007F0CEF90E4B998A186807F013FA0028F8D10422694601A80FF0CAFF002809D0013CE4B2FA204000FFF7A0FF002CB0D1BD
:401A0000F02000E0002002B070BDC046483E02008429002010B50400006800F061F8002801D10023236010BD70B504000D00002811D00368002B01D0FFF7ECFF0749084B4B
:401A40000B60084B4B60280000F02AF8002803D1024B236000E0002070BDC046203F0020383F0020F83E002010B501000148FFF7DBFF10BD9C29002010B50248FFF7CAFFF9
:401A800010BDC0469C290020002904D0087000234B70002000E0E2207047C0467047C04670B505000C00002811D0002911D00968002910D06368002B0FD04078FFF7E4FF76
:401AC00000280BD16168280000F04EF806E0E22004E0E22002E0E22000E0E22070BDC04610B5002803D0406800F08CF800E0E22010BDC04670B504000D004068FFF71AFE77
:401B0000002817D12B681B68A3602B685B68E3602B689B6823612B68DB6863612B681B69A3612B689B6923622B685B69E3612B681B6A636270BDC04610B582B0040001A9A8
:401B4000FFF7D8FF002803D161680198A3689847002807D1019B1A6A626200221A62E3682000984702B010BD10B5002808D0002908D003780B7048600800FFF7DDFF02E0E5
:401B8000E22000E0E22010BD10B5002804D00469002C03D0A04702E0E22000E0FD2010BD10B5002804D04469002C03D0A04702E0E22000E0FD2010BD10B5041E0CD0836901
:401BC000002B0BD09847D02809D1B738FFF7B6FEA3692000984702E0E22000E0FD2010BD10B5002809D0C369002B08D0984704000120FFF7A3FE200002E0E22000E0FD204B
:401C000010BDC04610B5002804D0416A0078FFF79FFD00E0E22010BD10B500F049F8002010BDC04610B50EF03BF8024900200EF047F810BDED83000010B508200EF0F0F815
:401C400010BDC04610B501200EF084F810BDC04610B501200EF09CF810BDC04610B584B00B4807F02BF80B4B64229A5C6521595C66241B5D0393029101920090064B3B22A4
:401C8000064901200BF0F2F8FA20800004B010BD543E0200C8470020144902002049020010B50248103008F091FC10BD543E020010B506F0BFFF06F049FC264C200020305C
:401CC000002107F01DF920003030002106F0D2FF20004030002106F0CDFF20005030002107F00EF920001030002106F0C3FF20006030002107F004F92000703007F0CAF8A5
:401D0000154C200006F040FC2000483006F03CFC124C2000103006F037FC2000583006F033FC0F4C2000203006F02EFC2000683006F02AFC0B4C2000303006F025FC2000A9
:401D4000783006F021FC0848403006F01DFC06F053FC10BD543E0200A810002028110020A811002028120020A812002010B5846903694361084B036101224523C2540022B9
:401D8000064B1A700021206906F074FF3221200006F086FA10BDC046951E00002C47002010B5030080691A695A6100221A6145215A5406F08DFA10BD70B50500CCB2002C75
:401DC00054D00378002B4FD09C4203D004700023436049E043685E1C4660142E08D1012343700133020000210B2006F095FB3BE0232E07D102234370020000210B2006F0C1
:401E00008BFB31E0322E08D103234370013B020000210B2006F080FB26E0412E08D104234370023B020000210B2006F075FB1BE03300503B3B2B0DD8052130000EF0E4FCAD
:401E4000002907D105236B70033B2A000B2006F063FB09E08B2E07D905236B70033B2A0000210B2006F058FB2C7011E00378002B0AD04378802252421343437002230200C7
:401E800000210B2006F048FB00236B606B702C7070BDC04610B58469074B9B78022B0AD1206906F00BFF01000448FFF785FF3221200006F0F5F910BD3C4B00202C47002038
:401EC00010B58269194B9B78012B02D0052B26D02AE0174B1B78022B0AD103694361154B03610023002203210A2006F015FB1BE0052B19D1036943610F4B03610F4B9B7DCE
:401F0000002B05D1002203210A2006F005FB0BE00023002204210A2006F0FEFA04E010321000642106F0BCF910BDC0463C4B00203C4A00208522000011310000C84700202F
:401F400010B5104B9B78012B1AD10F4B1B78022B0AD1036943610D4B03610023002203210A2006F0D9FA0BE0012B09D103694361074B03610023002203210A2006F0CCFAF4
:401F800010BDC0463C4B00203C4A002085220000DD21000010B583690269426100220261452142541033180006F092F910BDC046F8B50F0016001D002F4C4523E15C06F068
:401FC0008FFE4423E15C380006F08AFE4623E15C300006F085FE079806F070FE4823E054E38F002B04D100214733234AD15403E001214723204AD154089806F05FFE49230D
:402000001D4AD054069806F059FE002816D11A4B4B229A5C4C215B5C9A420FD0002A04D01649069806F05CFE03E01549069806F057FE114B4B22995C013299544A230E4A5C
:40204000D35C104A1278934215D00E4A1370012B04D16421280006F043FE0CE07A23064AD35C9B0703D00021280006F039FE0021280006F035FEF8BDC84700204C0400003A
:4020800050FBFFFF6C2B0020002803D14423124AD15420E0012803D145230F4AD1541AE0022803D146230C4AD15414E0032803D14A23094AD1540EE004280CD1022907D1AB
:4020C000054B01394C2299540021013A995402E04B23014AD1547047C847002010B58269384B9B78032B04D0042B07D0012B67D158E03549100006F0D3F861E07923334A79
:40210000D35C052B5CD89B00314AD3589F4644232E4AD35C002B04D000210020FFF7B4FF4EE001210020FFF7AFFF49E04A23274AD35C002B04D000210320FFF7A5FF3FE0A9
:4021400001210320FFF7A0FF3AE045231F4AD35C002B04D000210120FFF796FF30E001210120FFF791FF2BE04B23184AD35C002B04D000210420FFF787FF21E001210420B5
:40218000FFF782FF1CE04623104AD35C002B04D000210220FFF778FF12E001210220FFF773FF0DE00B4B1B78022B09D103694361094B03610023002203210A2006F0ACF99A
:4021C00010BDC0463C4B0020B80B0000C8470020284902003C4A00208522000010B58469204B9B78012B20D0032B39D101221E4B5A711E4B1E4A1F4901200AF037FE00212E
:402200000020FFF741FF00210120FFF73DFF00210220FFF739FF00210320FFF735FFFA218900200006F03CF81AE0134B1B78022B0AD103694361114B0361002300220321DB
:402240000A2006F069F90BE0062B09D1036943610B4B03610023002203210A2006F05CF910BDC0463C4B0020C8470020B04A02004A020000C84A02003C4A002085220000EC
:40228000411F000010B58469474B9B78032B08D002D8012B2BD086E0052B78D0062B7CD081E00222414B5A71414B424A424901200AF0DCFD00210020FFF7E6FE0021012035
:4022C000FFF7E2FE00210220FFF7DEFE00210320FFF7DAFE0023002204210A2006F01CF920002030FA21890005F0DAFF5BE0334B1B78042B0AD103694361314B03610023F7
:40230000002203210A2006F007F94CE0052B0AD1036943612B4B03610023002203210A2006F0FAF83FE0012B0AD103694361264B03610023002203210A2006F0EDF832E010
:40234000072B0AD103694361204B03610023002203210A2006F0E0F825E0092B0AD1036943611B4B03610023002203210A2006F0D3F818E0062B16D103694361154B0361EA
:402380000023002203210A2006F0C6F80BE020001030642105F084FF05E020002030FA21890005F07DFF10BD3C4B0020C8470020D84A020077020000C84A02003C4A00202A
:4023C0004526000011310000DD210000DD200000452D0000411F0000838EC08F181A80B21A00333A92B2222A06D8431E9BB2032B18D80138C0B21CE05A2B06D1431E9BB22D
:40240000022B11D80138C0B213E05F2B06D1431E9BB2012B0AD80138C0B20AE0632B07D1022006E0052004E0042002E0032000E005207047027A1300333BDBB2222B07D923
:402440005A2A07D05F2A07D0632A07D1022006E0052004E0042002E0032000E00520704710B50C004423CB5C002B10D0CB8F5A2B0DD95A280BD980B2834208D1044B054A43
:40248000054901200AF0F2FC01224223E25410BDF04A020003070000C84A020010B504004723C35C002B0DD17A22815C01230B43835400210320FFF7E7FD00210020FFF76E
:4024C000E3FD04E07A22835C01218B4383544823E35C002B09D17A22A15C02230B43A35400210320FFF7D0FD04E07A22A35C02218B43A3544923E35C002B05D17A22A15C71
:4025000004230B43A35404E07A22A35C04218B43A35410BD10B580697B23CB5C002B06D101247B33CC543030110005F0B9FE10BD10B5806900227B23CA54303005F0C8FE00
:4025400010BDC04670B504000D00100006F0B6FB002835D0002C33D06B78012B13D0002B02D0022B1ED02BE0EB8F0A34A34227DD14497A22885C082303438B54002100201B
:40258000FFF782FD1CE0EB8F0534A34218DD0D497A22885C082303438B5400210020FFF773FD0DE0EB8F0534A34209DD05497A22885C082303438B5400210020FFF764FD2F
:4025C00070BDC046C84700207A23C35C1B0712D54323094AD35C002B0DD0D38F013B9BB2492B08D800224323C25403497A328B5C082083438B547047C847002010B5442329
:40260000CB5C002B15D0002813D0CB8F0A3083420FDD084B084A094901200AF027FC08497A22885C082303438B5400210020FFF72BFD10BD004B020083070000C84A0200A6
:40264000C847002070B505008469D44B9B78072B00D92BE29B00D24AD3589F46D14D05236B71D14BB1229200D04901200AF0FEFB01223C23EA540A21200005F011FE200004
:402680002030FA21890005F00BFE0FE23C23C54AD35C0A2B00D909E29B00C54AD3589F46C44BC54AC14901200AF0E0FB7A23BD4AD35CDB0709D5C14ABA492800FFF72AFFE1
:4026C0006421200005F0ECFDF0E1B64E31002800FFF72EFFF28FB38E9A4220D2632B0CD101210020FFF7D0FC03213C23AD4AD1540239200005F0D4FDD8E101210020FFF756
:40270000C3FCA84D05223C23EA542800FFF764FE3623E8540121200005F0C2FDC6E100210020FFF7B1FC07213C239E4AD1540639200005F0B5FDB9E1A14BA24A9B4901207A
:402740000AF094FB7A23974AD35CDA0709D59B4A94492800FFF7DEFE6421200005F0A0FDA4E11B0709D5984A8E492800FFF7D2FE6421200005F094FD98E18A4E3100280070
:40278000FFF7D6FE01210020FFF77EFC3722B35C0133DBB2B3540F2B05D1824B00219954043105329954FA218900200005F078FD7CE1864B864A7D4901200AF057FB7A232D
:4027C000784AD35CDA0708D503213C23754AD1546131200005F064FD68E11B0709D57A4A70492800FFF796FE6421200005F058FD5CE16C4E31002800FFF79AFE0121002034
:40280000FFF742FC734B1B89734AD31818793100FFF726FE4223F35C002B0AD0614D00224223EA5400210020FFF72EFC07223C23EA54FA218900200005F032FD36E17A238F
:40284000584AD35CDA0708D55C4A5649FFF762FE6421200005F024FD28E11B0708D55A4A5049FFF757FE6421200005F019FD1DE14C4E3100FFF75CFEF28FB38E3621715C34
:402880005B1A9A420CDD00210020FFF7FDFB06213C23444AD1545E31200005F001FD05E1FA214900200005F0FBFCFFE07A233D4AD35CDB0708D5414A3A49FFF72BFE6421DB
:4028C000200005F0EDFCF1E0364E3100FFF730FE3722B35C0133DBB2B3540F2B22D1314BDA8F9B8E033B9A420DDA2E4B002237215A5401315A5437393C32995463312000C4
:4029000005F0CEFCD2E0274B0021372299540131013299540631043299545D31200005F0BFFCC3E01F4BDA8F9B8E9A420ED11D4B002137229954013101329954063104325B
:4029400099545D31200005F0ABFCAFE0FA218900200005F0A5FCA9E07A23124AD35CDB0708D5164A0F49FFF7D5FD6421200005F097FC9BE00B4E3100FFF7DAFDF18FB38E87
:402980005A1F914232DC632B28D101210020FFF77BFB03213C23034AD15427E03C4B002040490200C84700200C4B0200C84A020060490200244B0200D102000060EA000085
:4029C0003C4B0200FB02000010270000604B020019030000D41C00206C2B002001210020FFF752FB09213C23314AD154FA214900200005F055FC59E07A232D4AD35CDB07B4
:402A000008D52C4A2A49FFF785FD6421200005F047FC4BE0264E3100FFF78AFDF28FB38E033B9A4207DB00210020FFF72DFB07213C231F4AD154FA214900200005F030FC57
:402A400034E06421200005F02BFC2FE06421200005F026FC2AE0164B0121432299540931073A995422E0144B1B78022B1ED103694361124B03610023002203210A2005F006
:402A80004BFD13E020001030642105F009FC0DE00B4B1B890B4AD31818790549FFF7AEFD20002030FA21890005F0FAFB70BDC046C847002060EA00003C4A0020852200005E
:402AC000D41C00206C2B0020F0B583B00191264B9B7B042B05D8244C9A00A21810610133A373214B9B7B052B3BD100221E4B9A73002620E01C4F9A00BA1811695A1C9500BB
:402B00007D192C69A1420BD94C408000381804619200BA1811694C4014610269544004610133DBB200E0002318000422921B9342E0DB0136F6B2032EF5D90B4B1A6A1B6924
:402B4000D31A022B0DD8042A03D80023019AD38707E0632A03D96323019AD38701E0019BDA8703B0F0BDC0466C2B002010B50400C08F592809D8013005210DF049FE80B228
:402B80008300C0184023E0520AE0592808D9023005210DF03DFE80B28300C0184023E05210BDC04610B584B00400234924228B5C01338B54C36E0293836E0193436E00931C
:402BC000036EC26D416D806DFFF7F2F91B4B1B78002B02D11A48FFF761FC206D06F06EF8174C0A210DF08AFD2100FFF76DFF2000FFF7BCFF2423104AD35C142B18D1114C69
:402C00000122210010480AF041F823883E3C4022A25A019200930D4B91220D4901200AF025F92000FFF7D0FC00212423024AD154322004B010BDC0466C2B00204848002087
:402C4000C847002006480020D41C0020784B0200C84A0200F8B58069374B1978374A11705978517059889170090AD170197A117199895171090A9171597AD171197C117220
:402C8000598A5172090A9172997DD172198D1173090A51732425595D91732C24195DD173D98D1174090A51743221595C91742626995FD174091211756421595C5175652171
:402CC0005B5C93754E23D375137653769376D376137753779377D37719494F78202697558F7801369755CF78013697550F79013697554E7956558E7901355655CE7901359F
:402D000056550E7A013556554E7A013556558E7A01355655CD7A2A215554013153541355023153540131535401315354006F1E3B002106F0D3F8F8BDC84700209847002058
:402D40004848002070B58469CD4B9B78042B22D002D8032B07D0D8E1052B00D132E1062B00D113E1D1E100210020FFF78DF90021A06D05F0B5FFE06D002105F0B1FF002129
:402D80000020FFF781F9BF4B83225200BE4901200AF06CF8B9E1BD4B1B7B1C2B00D9B4E19B00BB4AD3589F46FFF754FF0022B74B1A73AAE1B74B8B225200B34901200AF0C2
:402DC00055F801210020FFF75FF99EE1B24B1C22FF32AD4901200AF049F800210020FFF753F92000203005F073FA8EE1AB4B90225200A54901200AF039F801210320FFF786
:402E000043F982E1A64B2622FF329F4901200AF02DF800210320FFF737F92000203005F057FA72E19F4B95225200974901200AF01DF801210120FFF727F966E19A4B302214
:402E4000FF32914901200AF011F800210120FFF71BF92000203005F03BFA56E1934B9A225200894901200AF001F801210420FFF70BF94AE18E4B3A22FF328349012009F07D
:402E8000F5FF00210420FFF7FFF82000203005F01FFA3AE1874B9F2252007B49012009F0E5FF01210220FFF7EFF82EE1824B4422FF327549012009F0D9FF00210220FFF72F
:402EC000E3F82000203005F003FA1EE101210320FFF7DAF8794BDB8F602B03D9784A774BDA8402E0774A754BDA8420001030642105F0D6F9606F002105F0F2FE05E10121CB
:402F00000320FFF7C1F86D4BDB8F602B03D96E4A6A4BDA8402E06D4A684BDA8420001030642105F0BDF9606F002105F0D9FEECE001210320FFF7A8F8604BDB8F602B03D952
:402F4000634A5E4BDA8402E0624A5C4BDA8420001030642105F0A4F9606F002105F0C0FED3E0606F05F0AAFE484B5875CDE0606F002105F0B5FEC8E001210020FFF784F8D0
:402F800020001030642105F08BF9BEE000210420FFF77AF800210020FFF776F800210120FFF772F800210220FFF76EF800210320FFF76AF8484B9022FF323349012009F0DA
:402FC00055FFA2E0314B1A7B1300153BDBB2022B29D8606F05F072FE80B2384D4E23E8522622AB5E181AE8840021606F05F078FE2622AB5E1D2B10DC00210320FFF744F8F1
:4030000000210420FFF740F820001030334905F047F91F221D4B1A7377E020001030642105F03EF971E013001C3BDBB2022B18D8224BDB8F612B0ED90023002204210A202B
:4030400005F06AFA114A137B073B137300210020FFF71AF859E020001030642105F020F953E01F2A3ED101210420FFF70DF8200010301B4905F014F92022044B1A7344E0FD
:403080003C4B0020984B0200C84A0200484800208C490200AC4B0200B84B0200C84B0200D44B0200E04B0200EC4B0200F84B0200084C02001C4C0200284C0200C8470020A5
:4030C000A6030000810300007A050000470500004E0700000E070000344C0200C0D40100409C0000202A10D10132084B1A730023002205210B2005F00FFA00210320FEF770
:40310000C3FF00210420FEF7BFFF70BD48480020F8B505008469DB4B9B78082B01D900F085FC9B00D84AD3589F46D84E05237371D74BD84AD849012009F098FE727A24235B
:40314000F2547389F3840021606F05F0C9FDB3893385327C2C23F254738AF38500222023F254337A632B03D12D32C84B5A8402E01E22C64B5A8400210420FEF785FF012243
:40318000C24B9A752800FFF765FDFA25AD002900200005F085F820001030642105F080F820002030290005F07BF800F03FFCB74B9B7D0E2B01D900F039FC9B00B74AD35855
:4031C0009F467A23B14AD35C002B09D0B44AAF49FFF7A0F96421200005F062F800F026FCAA4E3100FFF7A4F9F18F337A9AB2914220D2632B0CD101210020FEF745FF03228F
:40320000A24B9A750121200005F04AF800F00EFC9E4D2800FFF70EF93623E85401210020FEF732FF0523AB750A21200005F038F800F0FCFB00210020FEF726FF934BD98FD2
:4032400020229954193A9A750A21200005F028F800F0ECFB7A238D4AD35CDA0708D5914A8A49FFF757F96421200005F019F8DDE31B0708D58C4A8549FFF74CF96421200043
:4032800005F00EF8D2E3814E3100FFF751F901210020FEF7F9FE3722B35C0133DBB2B3540F2B04D1794B00219954333A9A75FA218900200004F0F4FFB8E37A23734AD35C94
:4032C000DA0708D503213C23704AD1546131200004F0E6FFAAE31B0708D5734A6B49FFF719F96421200004F0DBFF9FE3674E3100FFF71EF901210020FEF7C6FE6B4B1B89E1
:403300006B4AD31818793100FFF7AAF8F38F612B04D842225D498A5C002A0BD05B4D2022AB5400224223EA5400210020FEF7ACFE0723AB75FA218900200004F0B1FF75E31C
:403340007A23524AD35CDA070DD500210020FEF79BFE544A4D492800FFF7DCF86421200004F09EFF62E31B070DD500210020FEF78BFE4C4A45492800FFF7CCF86421200044
:4033800004F08EFF52E3414E3100FFF7D1F801210020FEF779FEF28F337A3621715C5B1A9A420EDD00210020FEF76EFE374BD98F20229954193A9A756421200004F070FF77
:4033C00034E3FA218900200004F06AFF2EE32F4B5B8C002B10D02D4AD18F2020125C033A914205DA294B19225A84183A9A7513E0013B264A53840FE0244D6B89EB84EA8F04
:403400002023EA5401210120FEF73EFE01210320FEF73AFE0823AB75FA218900200004F03FFF03E3194B26229B5E1E2B59DD7A23164AD35C9B0709D000210320FEF724FED8
:40344000174A12492800FFF765F855E00F4E3100FFF76EF8F28F2023F35C043B9A4229DA00210320FEF710FE084B19225A84183A9A755A892621595E511A606F05F030FC75
:403480003AE0C0463C4B0020004A0200C8470020504C0200ED030000C84A0200244A0200905F01003075000010270000D41C00206C2B0020606F05F001FCD34E4E27F0538B
:4034C00001210320FEF7E0FD2800FFF7C3FB2622B35EF25B9B1AF3840021606F05F000FC0AE0C94E0023F384FFF7B4FB00210320FEF7CAFD0923B375FA218900200004F0DA
:40350000CFFE93E2C04B1B8D002B23D03C2B0DD1BD4B1B78002B09D107213C33BA4AD15420004030FA21890004F0BAFEB64B188D1E210DF069F989B2002902D12800FFF75A
:4035400089FB01210120FEF79FFDAF4A138D013B138523E07A23AC4AD35C5B070FD500210120FEF791FD00210220FEF78DFD00210420FEF789FD0A22A34B9A750EE00021FC
:403580000120FEF781FD01210220FEF77DFD01210420FEF779FD0A229B4B9A75FA218900200004F07DFE41E27A23974AD35C5B071ED500210120FEF767FD00210220FEF7C7
:4035C00063FD00210420FEF75FFD7B238E4AD35C002B39D113002C21525C03325A542B397B22995420003030884904F059FE2BE0854D00227B23EA542000303004F068FECB
:4036000001210420FEF740FD2C23EB5C002B14D001210220FEF738FD2C237B4AD35C3C2B01D01E2B03D100210420FEF72DFD76492C228B5C013B8B5406E000210420FEF7D4
:4036400023FD0B22704B9A75FA218900200004F027FEEBE16C4BDB8D002B22D049236A4AD35C002B04D001210220FEF70DFD03E000210220FEF708FD634BD88D3C210DF030
:40368000C3F889B2002902D02800FFF7E3FA5E4AD38D013BD385FA218900200004F000FEC4E100210220FEF7EFFC0C22564B9A750121200004F0F4FDB8E100210420FEF72C
:4036C000E3FC00210020FEF7DFFC00210120FEF7DBFC00210220FEF7D7FC00210320FEF7D3FC2000403004F0F3FDFA218900200004F0D6FD9AE100210420FEF7C5FC002123
:403700000020FEF7C1FC00210120FEF7BDFC00210220FEF7B9FC00210320FEF7B5FCFA218900200004F0BCFD80E101210420FEF7ABFC00210020FEF7A7FC00210120FEF72C
:40374000A3FC00210220FEF79FFC00210320FEF79BFC32232C4AD35C002B07D100210420FEF792FC0C22284B9A7513E001210420FEF78AFC3223244AD35C3C2B01D01E2B6B
:4037800003D100210420FEF77FFC1F4932228B5C013B8B542800FFF75DFAFA218900200004F07EFD42E1FA218900200004F078FD3CE13C23144AD35C042B4BD0072B00D174
:4037C00091E0032B00D0ABE0114B124A1249012009F04CFB7A230C4AD35CDA0708D500213723094AD1546431200004F059FD97E01B0713D501214323034AD154633120005A
:4038000004F04EFD8CE0C046C8470020E09304003C4B02008D050000C84A0200844E31002800FEF785FE01210020FEF72DFC3722B35C0133DBB2B3540F2B05D17C4B0021D7
:403840009954043105329954FA218900200004F027FD65E0774B784A7849012009F006FB7A23734AD35CDA0708D503213C23704AD1546131200004F013FD51E01B0708D5F2
:40388000012143236A4AD1546331200004F008FD46E0674E31002800FEF74AFE01210020FEF7F2FB664B1B89664AD31818793100FEF7D6FD4223F35C002B03D15C4BDB8F27
:4038C000612B0AD95A4D00224223EA5400210020FEF7DAFB07223C23EA54FA218900200004F0DEFC1CE07A23514AD35CDA0704D500210020FEF7C8FB12E01B0704D5002166
:403900000020FEF7C1FB0BE0494BDB8F5F2B07D801210020FEF7B8FB03213C23444AD15420004030FA21890004F0BAFC7EE0404B0121432299549B7D083BDBB2022B10D80C
:403940002000403004F0C4FC394B00213C2299545A310A3A9954243A9A752800FFF77AF964E00D22324B9A7560E0374B1B78022B18D12000403004F0ABFC00213C232C4ACE
:40398000D1540420FEF780FB2B696B612F4B2B610023002203210A2004F0BEFD2800FFF759F919E0012B17D12000403004F090FC00213C231E4AD1540420FEF765FB2B69FF
:4039C0006B61234B2B610023002203210A2004F0A3FD2800FFF73EF920001030642104F05FFC23E0124B9B7D082B08D9144B1B89144AD31818790E49FEF700FE08E0104B5B
:403A00001B89104AD3181879626D0949FEF79AFD0B4B1B890B4AD31818790549FEF720FD20002030FA21890004F03AFCF8BDC046C8470020604B0200AC050000C84A02009A
:403A4000D41C00206C2B00203C4A002085220000DD21000010B5304B1978304A1170597851709878D9780902014351801979117258799979090201439181D9795172197A54
:403A80001174587A997A090201435182D97A9175187B597B090201431185997B24201154DC7B2C2154541C7C597C09022143D1859C7C32215454DC7C197D09022143D184D5
:403AC0005C7D642154549C7D013154542022995C134A51702121595C91702221595CD1702321595C1171195C51712521595C91712621595CD1712721595C11722821595CDC
:403B000051722921595C91722A21595CD1722B215B5C937510BDC04698470020C847002048480020002343710370437043806322024B9A86563A7D23C2547047C8470020E3
:403B400070B5050084693023224A0021206F05F0B3F92B696B61204B2B6101224523EA540021606D05F086F80021A06D05F082F80021E06D05F07EF80021206D05F07AF812
:403B80000021206E05F076F80021606E05F072F80021A06E05F06EF80021E06E05F06AF802210420FEF770FA0C48FFF7BBFF64210B480C3004F04AFB20001030642104F085
:403BC0006FFB002303E0074AD218537001330A2BF9DD70BD98470020C11E0000C8470020D41C00204848002070B582B004008569394B9B78022B6CD10022384B5A71384BE1
:403C00001B78FF2B06D1CF3B364A0021286E05F065F901E0FFF71EFFA86E05F04FF800284AD12E4B9B7D002B1AD02F4B9F2252002E49013009F01AF9236963612C4B2361A1
:403C40000023002202210B2004F066FC6B46DA1D05231370043B01210A2004F05DFC38E0244B4822FF322149012009F0FFF80021A86F05F035F80021286F05F031F81E4EF7
:403C80003100E86F05F02CF8236963611B4B2361FA218900280004F003FB6B46DA1D02231370013B01210A2004F036FC31004831E86E05F015F80CE01149686E05F010F852
:403CC000236963610F4B2361FA218900280004F0E7FA02B070BDC0463C4B0020C847002098470020A82B00201C5202002C5202001D6E000044520200B44E02008963000045
:403D0000C0A800003161000030B583B08469ED4B9B78082B00D93FE29B00EB4AD3589F46FFF798FEE94B00221A735A73A423E058002104F0D5FFE64B1A7A510593031943FB
:403D4000D30119431143206F04F0CAFFB023E058002104F0C5FFAC23E058002104F0C0FFA823E058002104F0BBFF6B46DA1D09231370083B01210A2004F0CEFBA023E05844
:403D800004F0C0FF20004030642104F089FA03E2D04B1A78CD4B9A74E06ECF49683104F09FFFF9E1C94B1B7B222B00D9C5E19B00CA4AD3589F46CA4B1B6E002B03D0AA2204
:403DC000C24B9A7302E0BB22C04B9A730023002204210A2004F0A0FBAFE10023002204210A2004F099FBA8E1A423E058002104F077FFB74B1A7A510593031943D3010B43F0
:403E00001A431100206F04F06BFFB023E058002104F066FFAC23E058002104F061FFA823E058002104F05CFF87E1A423E058002104F056FF0021206F04F052FFB023E058E2
:403E4000002104F04DFFAC23E058002104F048FFA823E058A34904F043FF6EE1A423E058A04904F03DFF0021206F04F039FFB023E058002104F034FFAC23E058002104F0A7
:403E80002FFFA823E058002104F02AFF55E1A423E058002104F024FF0021206F04F020FFB023E0588F4904F01BFFAC23E058002104F016FFA823E058002104F011FF3CE1FC
:403EC000A423E058002104F00BFF0021206F04F007FFB023E058002104F002FFAC23E058804904F0FDFEA823E058002104F0F8FE23E179496831E06E04F0F2FE1DE100235A
:403F0000002204210A2004F007FB16E10023002204210A2004F000FB0FE10023002204210A2004F0F9FA08E10023002204210A2004F0F2FA01E10023002204210A2004F06E
:403F4000EBFAFAE00023002204210A2004F0E4FAF3E00023002204210A2004F0DDFAECE00023002204210A2004F0D6FAE5E00023002204210A2004F0CFFADEE000230022AD
:403F800004210A2004F0C8FAD7E0564DA423E058290004F0A5FE4E4B1A7A510593031943D3010B431A431100206F04F099FEB023E058290004F094FEAC23E058290004F0E6
:403FC0008FFEA823E058290004F08AFEB5E09423E058002104F084FEB823E058002104F07FFEBC23E058002104F07AFEC023E058002104F075FEC423E058002104F070FEE3
:40400000B423E058002104F06BFE96E00023002204210A2004F080FA8FE00023002204210A2004F079FA88E00023002204210A2004F072FA81E09423E058002104F050FE02
:40404000B823E058002104F04BFEBC23E058002104F046FEC023E058002104F041FEC423E058002104F03CFEB423E0581D4904F037FE62E01B4DB823E058290004F030FEDC
:40408000BC23E058290004F02BFEC023E058290004F026FEC423E058290004F021FEB423E058002104F01CFE9423E058142104F017FE42E00023002204210A2004F02CFAB1
:4040C0003BE0C0463C4B0020644C020048480020001D00203C4A0020B44E0200884C0200C8470020FFFF00000023002204210A2004F012FA21E00023002204210A2004F08F
:404100000BFA1AE00023002204210A2004F004FA13E00023002204210A2004F0FDF90CE0FFF798FC1D4B9B7D4E2B03D1CC221B4B9A7302E0DD22194B9A73184B1B7B153B4A
:40414000DBB2022B28D920004030642104F0A8F822E0124B1B7B212B04D111497831E06E04F0BEFD20004030642104F099F813E00A4B1A7B5B7B9A4209D00023002203215A
:404180000B2004F0C9F9054B1A7B5A7304E020004030642104F084F803B030BD48480020B44E020010B584690369436100230361452283542000403004F08AF82000503082
:4041C00004F086F810BDC04600B583B0002A02D000230B7017E00B78B42B12D1036943610A4B03610023002202210B2004F094F96B46DA1D0123137001210A2004F08CF9CB
:4042000001E001330B7003B000BDC046995F000000B583B0002A02D000230B801CE00B88E1229200934215D100230B80036943610A4B03610023002202210B2004F06CF9AC
:404240006B46DA1D02231370013B01210A2004F063F901E001330B8003B000BD8963000000B583B06B46D971012911D103694361394B03610023002201310B2004F04CF958
:4042800001236A46073201210A2004F045F961E0022910D103694361304B0361002300220B2004F039F901236A46073201210A2004F032F94EE0042911D103694361284B69
:4042C00003610023002202390B2004F025F901236A46073201210A2004F01EF93AE0052911D1036943611F4B03610023002203390B2004F011F901236A46073201210A202E
:4043000004F00AF926E0062911D103694361164B03610023002204390B2004F0FDF801236A46073201210A2004F0F6F812E0072910D1036943610D4B036100230022053977
:404340000B2004F0E9F801236A46073201210A2004F0E2F803B000BD995F000089630000F16700001D6E000031610000655E000000230370012242704380704770B505007B
:40438000846901224523C2540021206F04F072FC0021E06E04F06EFC0021A06F04F06AFC0021E06F04F066FC8023E058002104F061FC8423E058002104F05CFC9823E058B4
:4043C000002104F057FC104E3000FFF7D1FF0023B3712B696B610D4B2B6132210C480C3003F034FFFA214900200003F059FF20004030642103F054FF20005030FA218900FF
:4044000003F04EFF70BDC046C8470020E93B0000001D00200378012B01D9002303704378022B01D9012343704388012B01D9002343807047082910D1838E591FC28F91429C
:404440001ADB632B03D1043B838601201BE0332B14D9053B8386012015E0102910D1838E5F2B03D10433838601200CE05D2B09D805338386012006E0002004E0002002E04A
:40448000002000E000207047F8B507000E000A210CF034F9C0B2114C255C6D050A2138000CF0B2F9C9B2635C9B031D430A2130000CF024F9C0B2235CDB011D430A2130000F
:4044C0000CF0A2F9C9B2635C1D432562FA235B0063620022A262E362F8BDC046001D002070B506000A210CF009F9C0B20A4C235C5D050A2130000CF087F9C9B2635C9B03B8
:404500002B43064A1343A363FA235B00E36300222264636470BDC046001D0020B931000070B504000568E121090128000CF0E6F82071E121090128000CF066F908003C21B1
:404540000CF0DCF860713C2128000CF05DF9A17170BDC0460378002B02D16333037203E0012B01D1593303727047C0464378002B0CD1C38F602B04D937234372134B4381AD
:4045800021E032234372124B43811CE0012B0CD1C38F602B04D9552343720E4B438112E0502343720C4B43810DE0022B0BD1C38F602B04D96E234372084B438103E064231A
:4045C0004372074B43815A2303747047A6030000810300007A050000470500004E0700000E07000070B504000378002B0CD14388002B03D1A5239B00838111E0012B0FD109
:404600009623DB0083810BE04388002B03D12D33FF33838104E0012B02D196239B0083810025E573A0893C210CF068F8A073E1231B01638201236375257570BD70B50400F9
:404640000025C57380893C210CF058F8A073E1231B01638201236375257570BD10B50A000378002B01D1012100E006214378002B02D10833194308E0012B02D10F3319430B
:4046800003E0022B01D11E3319434388002B02D14033194302E0C0235B001943100004F01FFB10BDF8B5150086698023F0580D4904F016FB0C4F3B785C059B031C430A21DE
:4046C00028000CF01BF8C0B2395CC9010C430A2128000CF099F8C9B2795C2143306F04F0FFFAF8BD14500200001D002070B50400058DE121090128000CF000F82A23E05487
:40470000E121090128000CF07FF888B23C210BF0F5FF2B23E05470BD70B50400C58DE121090128000BF0EAFF3023E054E121090128000CF069F888B23C210BF0DFFF31232E
:40474000E05470BDF0B583B001900D0016000A2128000BF0D3FFC0B20F4F3C5C64050A2128000CF051F8C9B2795C89030C430A2130000BF0C3FFC0B2395CC9010C430A2135
:4047800030000CF041F8C9B2795C2143019804F0A7FA03B0F0BDC046001D002010B501290ED14723C15C0133C35C5B004922825C92000B431343582211498B5400201DE0BD
:4047C00058230F4AD35C012210001840591011409B10134046320B4CA25C904209D14822A25C914207D14922A25C934205D0012004E0012002E0012000E0002010BDC046D8
:40480000A82B0020C847002010B50C4B9B79002B03D1002104F064FA0FE0022B0DD05023064AD35C002B04D00549083104F058FA03E00349103104F053FA10BDC847002050
:404840001450020070B506000F4D59242B5D01332B55406E04F032FA0C4B186660331800FFF75EFE2B5D052B0BD1094B1B78002B03D19C33F058FFF7C7FF00215923024ABC
:40488000D154322070BDC046A82B0020C84700204848002010B584695023CB5C5A220E498A5C934216D05A228B54002B09D02000103003F00DFD20002030642103F0F0FC2C
:4048C00008E02000203003F003FD20001030642103F0E6FC10BDC046A82B0020F0B5474680B482B007000E0083699846147855780369CC4A934200D002E15023CB5C002B4E
:4049000000D0C6E0052C03D0182C01D0832C30D1012D14D14046103003F0DAFC80234246D058002104F0DCF900214346586F04F0D7F94F214346186F04F0D2F919E0022DBD
:4049400005D15B214346186F04F0CAF911E0032D05D106214346186F04F0C2F909E02B007F33DBB2022B04D840461030FA2103F097FC052C1BD0182C39D1042D0BD10621E0
:404980003800FFF76DFC4346D86EA749683104F0A7F901F05AFA802D01D001F056FA4346D86EA249203104F09BF901F04EFA042D11D13B697B619E4B3B6100230022022124
:4049C0000B2003F0A9FD4346D86E9749683104F087F901F03AFA802D01D001F036FA4346D86E9249203104F07BF901F02EFA802D33D18D4C210048314346D86E04F070F9A7
:404A000000214346986F04F06BF900214346186F04F066F980234246D058002104F060F921004346D86F04F05BF94046103003F04FFC3B697B617F4B3B61FA2189004046DB
:404A400003F02EFC6B46DA1D02231370013B01210A2003F061FD01F0F8F9012D0CD1734920314346D86E04F03BF940461030FA2103F016FC01F0E9F97F35EDB2022D01D9EA
:404A800001F0E3F940461030FA2103F009FC01F0DCF9802C22D1802D01D001F0D6F9664B9B79002B08D1A0334246D05804F02AF90122614B9A7109E0012B07D19F33424629
:404AC000D05804F031F900225B4B9A714346D86E5549683104F004F901F0B7F9802D01D001F0B3F99C234246D058002104F0F8F84346D86E4D49203104F0F2F801F0A5F953
:404B00004C4A934200D0D8E25023CB5C002B00D09CE2802C05D0052C03D0182C01D0832C30D1012D14D14046103003F0D1FB80234246D058002104F0D3F800214346586FE7
:404B400004F0CEF84F214346186F04F0C9F819E0022D05D15B214346186F04F0C1F811E0032D05D106214346186F04F0B9F809E02B007F33DBB2022B04D840461030FA21FF
:404B800003F08EFB102C00D110E111D8042C00D1AEE005D8012C1FD0022C69D001F055F9052C00D1C5E1082C00D1D9E001F04DF9402C00D14AE107D8182C00D1F3E1202C4B
:404BC00000D119E101F041F9802C00D16BE1832C00D111E201F039F9802D31D131007C3101223800FFF7F0FA0F4968314346D86E04F076F83378002B03D101333371337051
:404C000008E0012B03D100233371337002E00023337133700123094A03210B2003F07CFC01F013F9995F0000B44E0200944F0200655E000089630000C84700203C4A002043
:404C4000012D07D1E54920314346D86E04F048F801F0FBF87F35EDB2022D01D901F0F5F80123DF4A03210B2003F056FC01F0EDF8802D25D131007C3101223800FFF7A4FA67
:404C8000D84968314346D86E04F02AF87378002B02D1013373700BE0012B02D10133737006E0022B02D10023737001E0012373700123CB4A03210B2003F02EFC01F0C5F82D
:404CC000012D07D1C54920314346D86E04F008F801F0BBF87F35EDB2022D01D901F0B5F80023002203210B2003F016FC01F0ADF8802D1DD131007C3101223800FFF764FA97
:404D0000B84968314346D86E03F0EAFF7388002B02D10133738003E0012B01D1002373800123AF4A03210B2003F0F6FB01F08DF8012D07D1A94920314346D86E03F0D0FF77
:404D400001F083F87F35EDB2022D01D901F07DF80023002203210B2003F0DEFB01F075F8802D15D19F4968314346D86E03F0B8FF9D4AD36E3C33D3663B697B619B4B3B61E8
:404D800000231A0002210B2003F0C6FB01F05DF87F35EDB2022D01D901F057F80023002203210B2003F0B8FB01F04FF8802D15D18C4968314346D86E03F092FF8A4AD36EF7
:404DC0003C33D3663B697B61884B3B6100231A0002210B2003F0A0FB01F037F87F35EDB2022D01D901F031F80023002203210B2003F092FB01F029F8802D0BD17C491831B0
:404E00004346D86E03F06CFF05213800FFF728FA01F01BF8012D0CD1704920314346D86E03F05EFF40461030FA2103F039FA01F00CF87E35EDB2012D01D901F006F84046CC
:404E40001030FA2103F02CFA00F0FFFF802D0ED1674918314346D86E03F042FF6322624B9A8604213800FFF7FBF900F0EEFF012D0CD15A4920314346D86E03F031FF40465B
:404E80001030FA2103F00CFA00F0DFFF7E35EDB2012D01D900F0D9FF40461030FA2103F0FFF900F0D2FF802D21D14E4968314346D86E03F015FF4C4B9B79002B09D1A033F9
:404EC0004246D05803F01EFF0122474B9A7100F0BCFF012B01D000F0B8FF9F334246D05803F022FF0022404B9A7100F0AEFF042D01D000F0AAFF3B4968314346D86E03F07E
:404F0000EFFE394B9B79002B07D1A0334246D05803F0F8FE0122344B9A713B697B61354B3B6100231A0002210B2003F0F5FA00F08CFF802D0CD1294920314346D86E03F03D
:404F4000CFFE40461030FA2103F0AAF900F07DFF812D0CD1214920314346D86E03F0C0FE40461030FA2103F09BF900F06EFF2B007E33DBB2012B06D840461030FA2103F0AF
:404F80008FF900F062FF042D01D000F05EFF154968314346D86E03F0A3FE07213800FFF75FF900F052FF802D07D10C4920314346D86E03F095FE00F048FF042D01D000F0D7
:404FC00044FF06213800FFF74BF9064968314346D86E03F085FE00F038FFC046944F02003C4A0020B44E0200C8470020D96500001450020079620000802D0BD1D5496831FE
:405000004346D86E03F06CFE08213800FFF728F900F01BFF012D0CD1CF4920314346D86E03F05EFE40461030FA2103F039F900F00CFF7E35EDB2012D01D900F006FF40465A
:405040001030FA2103F02CF900F0FFFE802C22D1802D01D000F0F9FEC04B9B79002B08D1A0334246D05803F04DFE0122BB4B9A7109E0012B07D19F334246D05803F054FE00
:405080000022B64B9A714346D86EB249683103F027FE00F0DAFE802D01D000F0D6FE9C234246D058002103F01BFE4346D86EAA49203103F015FE00F0C8FEA94A934200D03A
:4050C00052E15023CB5C002B00D00BE1402C01D0202C30D1012D14D14046103003F0F8F880234246D058002103F0FAFD00214346586F03F0F5FD4F214346186F03F0F0FDA2
:4051000019E0022D05D15B214346186F03F0E8FD11E0032D05D106214346186F03F0E0FD09E02B007F33DBB2022B04D840461030FA2103F0B5F8102C7DD002D8082C51D07A
:40514000A2E0202C28D0402C00D09DE0802D07D14346D86E8049203103F0C2FD00F075FE042D01D000F071FE7B4930314346D86E03F0B6FD84234246D058002103F0B0FD1A
:4051800098234246D058002103F0AAFD02213800FFF766F800F059FE802D07D14346D86E6D49203103F09CFD00F04FFE042D01D000F04BFE684930314346D86E03F090FD13
:4051C00084234246D058002103F08AFD98234246D058002103F084FD02213800FFF740F800F033FE802D01D000F02FFE21005B48FFF720F9002810D05A4C0122210038007B
:40520000FFF706F84346D86E5249683103F068FD3A3C01223C23E25405E04346D86E4E49203103F05DFD0023002203210B2003F073F900F00AFE802D01D000F006FE21008A
:405240004648FFF7F7F8002810D0464C012221003800FEF7DDFF4346D86E3E49683103F03FFD3A3C01223C23E25405E04346D86E3949203103F034FD0023002203210B2049
:4052800003F04AF900F0E1FD802D12D140461030FA21490003F004F800214346186F03F01FFD4346D86E2C49203103F019FD00F0CCFD7F35EDB2022D01D900F0C6FD404615
:4052C0001030FA21490002F0EBFF00214346186F03F006FD4346D86E1F49203103F000FD00F0B3FD802C22D1802D01D000F0ADFD1A4B9B79002B08D1A0334246D05803F045
:4053000001FD0122154B9A7109E0012B07D19F334246D05803F008FD0022104B9A714346D86E0C49683103F0DBFC00F08EFD802D01D000F08AFD9C234246D058002103F078
:40534000CFFC4346D86E0449203103F0C9FC00F07CFDC046B44E0200944F0200C8470020F167000002480020C64A934200D03AE15023CB5C002B00D0C3E0402C01D0202C63
:4053800030D1012D14D14046103002F0A1FF80234246D058002103F0A3FC00214346586F03F09EFC4F214346186F03F099FC19E0022D05D15B214346186F03F091FC11E07A
:4053C000032D05D106214346186F03F089FC09E02B007F33DBB2022B04D840461030FA2102F05EFFA84B9B7D0E2B01D100F02DFD402C24D0802C3ED0202C5FD1802D07D121
:40540000A24920314346D86E03F06AFC00F01DFD042D01D000F019FD9C4930314346D86E03F05EFC40461030FA2102F039FF0023002207210A2003F06FF800F006FD802DF8
:4054400007D1924920314346D86E03F049FC00F0FCFC042D01D000F0F8FC4346D86E8B49303103F03DFC0023002207210A2003F053F800F0EAFC802D01D000F0E6FC824B5B
:405480009B79002B08D1A0334246D05803F03AFC01227D4B9A7109E0012B07D19F334246D05803F041FC0022774B9A714346D86E7749683103F014FC00F0C7FC802D07D141
:4054C000724920314346D86E03F00AFC00F0BDFC7F35EDB2022D01D900F0B7FC40461030FA21490002F0DCFE00214346186F03F0F7FB4346D86E6549203103F0F1FB00F087
:40550000A4FC802C22D1802D01D000F09EFC5E4B9B79002B08D1A0334246D05803F0F2FB0122594B9A7109E0012B07D19F334246D05803F0F9FB0022534B9A714346D86E3E
:405540005349683103F0CCFB00F07FFC202C1AD1802D07D14D4920314346D86E03F0C0FB00F073FC042D01D000F06FFC40461030FA2102F095FE0023002207210A2002F006
:40558000CBFF00F062FC402C1BD1802D07D13F4920314346D86E03F0A3FB00F056FC042D01D000F052FC394930314346D86E03F097FB00231A0007210A2002F0ADFF00F0E7
:4055C00044FC802D01D000F040FC9C234246D058002103F085FB4346D86E2C49203103F07FFB00F032FC2B4A934200D067E1182C39D1012D18D14046303002F069FE404612
:40560000103002F065FE80234246D058002103F067FB00214346586F03F062FB4F214346186F03F05DFB1EE0022D05D15B214346186F03F055FB16E0032D05D10621434602
:40564000186F03F04DFB0EE02B007F33DBB2022B09D840463030104902F022FE40461030FA2102F01DFE102C18D003D8082C00D184E016E1182C00D1EFE0202C00D1FEE085
:405680000FE1C0461D6E0000C8470020944F0200B44E02003161000010270000802D09D0012D07D0022D05D0032D03D0042D01D0052D53D140463030BC4902F0F1FD40464D
:4056C0001030FA21890002F0EBFDB94A936E3C339366B84A934202D10022B54B9A66B44B9C6EE121090120000BF008F8C7B2E121090120000BF088F808003C210AF0FEFF08
:40570000C5B229003800FEF7BFFE00214346586F03F0E6FA0A2138000AF0F0FFC0B2A64E345C64050A2138000BF06EF8C9B2715C89030C430A2128000AF0E0FFC0B2315CDE
:40574000C9010C430A2128000BF05EF8C9B2715C21434346186F03F0C3FA76E37F35EDB2022D00D971E340463030904902F098FD40461030FA2102F093FD66E3802D09D080
:40578000012D07D0022D05D0032D03D0042D01D0052D52D140463030844902F081FD40461030FA21890002F07BFD814B9B6E002B02D1804A7E4B9A667D4B9C6E3C3C9C66DD
:4057C000E121090120000AF099FFC7B2E121090120000BF019F808003C210AF08FFFC5B229003800FEF750FE00214346586F03F077FA0A2138000AF081FFC0B26E4E345CC2
:4058000064050A2138000AF0FFFFC9B2715C89030C430A2128000AF071FFC0B2315CC9010C430A2128000AF0EFFFC9B2715C21434346186F03F054FA07E37F35EDB2022D08
:4058400000D902E340463030584902F029FD40461030FA2102F024FDF7E2042D00D0F4E2534B996E4346586E03F03AFA6B46DA1D0123137006210B2002F04EFEE5E2802DB9
:4058800000D0E2E24A4B996E4346586E03F028FA6B46DA1D0123137006210B2002F03CFED3E2802D00D0D0E24346D86E4349303103F016FA02213800FEF7D2FCC5E2404A95
:4058C000934200D0A2E1202C30D1012D14D14046103002F0FDFC80234246D058002103F0FFF900214346586F03F0FAF94F214346186F03F0F5F919E0022D05D15B21434655
:40590000186F03F0EDF911E0032D05D106214346186F03F0E5F909E02B007F33DBB2022B04D840461030FA2102F0BAFC202C00D98BE2A400234B1B599F46802D00D084E243
:40594000F37D012B00D080E21C4930314346D86E03F0C6F940463030642102F0A1FC74E2802D00D071E2F37D012B00D06DE2134930314346D86E03F0B3F9404630306421A1
:4059800002F08EFC61E2802D00D05EE2F37D012B00D05AE2094930314346D86E03F0A0F940463030642102F07BFC4EE210270000C847002080510100001D0020944F020057
:4059C000D9650000144D0200802D0AD0012D08D0022D06D0032D04D0042D02D0052D00D033E2F37D012B50D140463030D54902F057FC40461030FA21890002F051FCF36E46
:405A00003C33F366D04A934201D10023F366F46EE121090120000AF071FEC7B2E121090120000AF0F1FE08003C210AF067FEC5B229003800FEF728FD00214346586F03F0C2
:405A40004FF90A2138000AF059FEC0B2BF4E345C64050A2138000AF0D7FEC9B2735C9B031C430A2128000AF049FEC0B2315CC9010C430A2128000AF0C7FEC9B2715C2143CF
:405A80004346186F03F02CF9DFE14346D86EB049203103F025F9D8E1802D0AD0012D08D0022D06D0032D04D0042D02D0052D00D0CBE1F37D012B4FD140463030A14902F056
:405AC000EFFB40461030FA21890002F0E9FBF36E002B01D19C4BF366F46E3C3CF466E121090120000AF00AFEC7B2E121090120000AF08AFE08003C210AF000FEC5B2290058
:405B00003800FEF7C1FC00214346586F03F0E8F80A2138000AF0F2FDC0B28C4E345C64050A2138000AF070FEC9B2735C9B031C430A2128000AF0E2FDC0B2315CC9010C4350
:405B40000A2128000AF060FEC9B2715C21434346186F03F0C5F878E14346D86E7C49203103F0BEF871E1802D2DD1F37D012B00D06BE1F36E326E9B1A591E764A914202D9D7
:405B8000754A93420CDA40461030FA21890002F087FB6F4920314346D86E03F0A1F854E14046303002F094FB40461030FA21890002F076FB694948314346D86E03F090F84B
:405BC0000223F37541E1042D00D03EE1644BDB7D022B0BD15E4930314346D86E03F080F840463030642102F05BFB2EE1F37D012B00D02AE1564930314346D86E03F070F821
:405C000040463030642102F04BFB1EE1554A93426AD1802C30D1012D14D14046103002F057FB80234246D058002103F059F800214346586F03F054F84F214346186F03F06E
:405C40004FF819E0022D05D15B214346186F03F047F811E0032D05D106214346186F03F03FF809E02B007F33DBB2022B04D840461030FA2102F014FB802C18D1042D0BD1E9
:405C800040463030012102F00BFB4346D86E3349683103F025F8D8E07F35EDB2022D00D9D3E040461030FA2102F0FAFACDE0802D06D14346D86E2649203103F011F8C4E003
:405CC000012D06D14346D86E2149203103F008F8BBE07F35EDB2022D00D9B6E040461030FA2102F0DDFAB0E01F4A934200D0ACE0202C45D1012D14D14046103002F0E8FAB3
:405D000080234246D058002102F0EAFF00214346586F02F0E5FF4F214346186F02F0E0FF2EE0022D05D15B214346186F02F0D8FF26E0032D1AD106214346186F02F0D0FFFB
:405D40001EE0C0467017000080510100001D0020944F02005E090000E0B7FEFFB44E0200C847002079620000655E00002B007F33DBB2022B04D840461030FA2102F090FA08
:405D8000102C04D0202C40D0082C5ED11EE0802D5BD1304C012221003800FEF715FA7C3C7923E35C052B50D04346D86E2A49683102F096FF294979228B5C01338B540023D2
:405DC000002203210B2002F0A7FB3EE0802D3CD1204C012221003800FEF7F6F97C3C7923E35C002B31D04346D86E1B49683102F077FF1A4979228B5C013B8B5400230022C2
:405E000003210B2002F088FB1FE0012211493800FEF7DAF9802D0CD14346D86E0E49683102F05EFF0023002204210A2002F074FB0BE0042D09D14346D86E0949303102F02B
:405E40004FFF02213800FEF70BFA02B004BC9046F0BDC04644480020B44E0200C8470020944F0200F0B583B0050084693B4B9B78022B08D002D8002B5DD06CE0032B33D0A9
:405E8000092B5DD067E0364F07237B7135497831E06E02F025FF0021A06F02F021FF8023E058002102F01CFF7D23FB5C0A21019318000AF023FCC0B22B4E355CED010A214D
:405EC00001980AF0A1FCC9B2715C0D4327492943206F02F005FF00227923FA5420001030234902F0DDF936E079231D4AD35C052B31D89B001F4AD3589F46206F1E4902F05C
:405F0000EFFE28E0206F1D4902F0EAFE23E0206F1B4902F0E5FE1EE0206F1A4902F0E0FE19E0206F184902F0DBFE14E0206F174902F0D6FE0FE0164A0949FEF7CFFC0AE06A
:405F400020005030FA21890002F0AAF9002211492800FEF739F903B0F0BDC0463C4B0020C8470020B44E0200001D00200000970AB80B0000984D0200BF1F0000861F000032
:405F8000DB1F0000CF1F0000E61F0000ED1F00003C4A002044480020F0B585B0050084695B4B9B78082B00D9AFE09B00594AD3589F46594E012373710021A06F02F090FEC9
:405FC0000021606F02F08CFE8023E0585349383102F086FE01213000FEF7E0FB31007C3101222800FEF7F0F80023002203210B2002F092FA0023002208210B2002F08CFA94
:4060000083E020001030FA21C90002F049F98023E0584249383102F063FE3F4E6423F35C0A21019318000AF069FBC0B23C4F3D5C6D050A2101980AF0E7FBC9B2795C890347
:406040000D436523F65C0A2130000AF057FBC0B2395CC9010D430A2130000AF0D5FBC9B2795C2943206F02F03BFE4EE02D4A2A49FEF734FC49E02B4B1B78022B07D12000FF
:40608000103002F025F902212800FEF7E9F8E06E2549683102F024FE37E000211E48FEF77DFB00282CD00021A06F02F019FE0021206F02F015FE8023E058002102F010FEED
:4060C000194E3100E06F02F00BFE2000103002F0FFF82B696B61154B2B61FA218900200002F0DEF802ABDA1D02231370013B01210A2002F011FA31004831E06E02F0F0FDF5
:4061000020004030642102F0CBF805B0F0BDC0463C4B0020B04D0200C847002014500200001D00203C4A0020B44E02008963000070B582B005008469474B9B78022B09D02B
:4061400003D8002B00D180E083E0032B2ED0062B3ED07EE00021A06F02F0C2FD3F4E3C21306E0AF0CBFA0301181A85002800B566E12109010AF0C2FAC6B2E1210901280028
:406180000AF042FB08003C210AF0B8FAC1B23000FEF77AF920001030FA21490002F080F8200030302E4902F07BF852E020001030FA21890002F074F88023E05829495031A0
:4061C00002F08EFD606F2849203102F089FD40E0264B1B78012B25D17F33E058002102F07FFD204E31006831606F02F079FD2000103002F06DF82B696B611D4B2B61FA21C5
:40620000C900200002F04CF86B46DA1D0123137001210A2002F080F931001831E06E02F05FFD16E00021606F02F05AFD0B4B196E606E02F055FD01212800FEF711F8E06E6F
:406240000C49303102F04CFD03E0084A0349FEF745FB02B070BDC0463C4B0020C84700201027000014500200001D00203C4A0020995F0000944F020070B505008469394BC4
:406280009B78022B08D002D8002B66D069E0032B23D0062B40D064E0334B02229A7152215A548023E058002102F01AFD2F4D29005031606F02F014FD290078319C23E05808
:4062C00002F00EFD20001030642101F0E9FF20003030274901F0E4FF43E05223224AD35C042B0DD101214F33D15422491031E06E02F0F6FC20003030FA21490001F0D0FF94
:406300001A495031606F02F0EBFC20001030FA21890001F0C5FF24E0134B00215222995401329B5C002B04D113493031E06E02F0D7FC606F002102F0D3FC01220A4B9A7106
:4063400000220E4B9A762B696B610D4B2B61002303210B2002F0E0F803E00A4A0249FEF7BDFA70BD3C4B0020C84700209450020020BF020014510200944F02003447002033
:40638000896300003C4A002070B582B005008469834B9B78092B00D900E19B00814AD3589F46814D02236B71804B814A8149012006F05CFD2800FEF72DF89423E0580021CC
:4063C00002F08EFC9823E058002102F089FC8423E058002102F084FC8C23E058002102F07FFC0021606F02F07BFC8023E058002102F076FC20004030642101F051FF200080
:406400005030FA21890001F04BFF5023EB5C002B06D00023002204210B2002F07DF8BDE06B46DA1D04231370033B03210B2002F073F8B3E05C4E3000FEF78CF83000FEF762
:4064400095F83000FEF7CEF8A16F3000FEF706F9594B1978B27B2800FEF724F99EE0524B1B79002B17D1504D2800FEF773F82800FEF77CF82800FEF7B5F8A16F2800FEF765
:40648000EDF88023E058002102F02AFC206F4B4902F026FC82E0012B17D1434D2800FEF759F82800FEF762F82800FEF7C7F8A16F2800FEF7D3F88023E058002102F010FCF3
:4064C000206F3E4902F00CFC68E0022B66D16322354B9A860021A06F02F002FC8023E058002102F0FDFB206F344902F0F9FB55E0314A2D49FEF7F2F950E02F4B1B78042B51
:406500000BD1294B1B79022B03D10421FDF7A8FE15E00521FDF7A4FE11E0032B0AD101222749FDF751FE0023002204210B2001F0F3FF04E0012B02D10121FDF791FEE06EE8
:406540002049683102F0CCFB28E01F4B1B78012B10D11E4B1E4A1749012006F087FC2B696B611C4B2B610023002202210B2001F0D3FF13E00C49FEF78DF920004030642102
:4065800001F08EFE0AE020005030FA21890001F087FE00220A492800FDF716FE02B070BD3C4B0020D44D0200C847002058520200460400002C5202003C4A0020C9643209B9
:4065C00044480020B44E0200484800206C52020041050000093D0000F0B54F4680B482B005008469794B9B78022B0AD003D8002B00D1E2E0E5E0032B1DD0062B00D1C8E05C
:40660000DFE0734D0023EB6600210020FDF73CFF0123EB758733E058012102F061FB20001030FA21490001F03BFE20003030694901F036FEC5E0664BDB7D012B02D0022BF3
:4066400012D0BEE020001030FA21890001F028FE8023E0586049503102F042FB606F5F49203102F03DFBACE0594A9189137CCB18517ACB182D33FF33D26ED71A02D5584BB3
:406680009C46674420001030FA21890001F008FE4F4EF36EE1210901009318000AF02EF8C2B20192E121090100980AF0ADF808003C210AF023F8C3B20093E121090138006D
:4066C0000AF0A6F87023F054E121090138000AF085F908003C210AF09BF87123F0540021606F02F0FDFA5B233E4AD35C002B07D000215B23D1543933E05802F0F1FA08E068
:4067000001215B23374AD1543933E058133102F0E7FA8023E0583049503102F0E1FA0A21019E300009F0EAFFC0B22C4F395C4B0599460A2130000AF067F8C9B2795C890399
:406740004E460E430A21009809F0D8FFC0B2395CC9010E430A2100980AF056F8C9B2795C3143206F02F0BCFA194B70229A5A64215B5A9A4225D18823E058002102F0B0FAE3
:40678000606F002102F0ACFA05212800FDF768FD17E08823E058002102F0A2FA606F002102F09EFA2B696B610F4B2B610023002202210B2001F0B0FE03E00C4A0449FEF7B4
:4067C0008DF802B004BC9146F0BDC0463C4B0020C8470020983A000014500200001D002080510100A82B0020896300003C4A0020F8B505008469D74B9B78092B00D9F9E2BA
:406800009B00D54AD3589F46D44D05236B710021A06F02F065FA8023E058002102F060FA8423E058072102F05BFA9823E058012102F056FA00223823EA54200010300A21B5
:4068400001F02EFD20005030FA21890001F028FDD0E23C23C14AD35C0A2B00D9CAE29B00BF4AD3589F467A23BC4AD35CDA0718D58423E058002102F033FA9823E058012115
:4068800002F02EFA8C23E058012102F029FAB549206F02F025FA20001030642101F000FDA8E21B0718D58423E058002102F018FA9823E058012102F013FA8C23E058012175
:4068C00002F00EFAA849206F02F00AFA20001030642101F0E5FC8DE28423E058072102F0FFF99823E058012102F0FAF98C23E058002102F0F5F9994DA88EC0B2FDF7F0FDC0
:40690000AE8E0A21300009F0F9FE80B2974F3B5C5D050A21300009F077FF89B2795C89032B000B4392491943206F02F0D9F920001030642101F0B4FC5CE27A23874AD35CF5
:40694000DA0718D58423E058002102F0C9F99823E058012102F0C4F98C23E058012102F0BFF98049206F02F0BBF920001030642101F096FC3EE21B0718D58423E058002189
:4069800002F0AEF99823E058012102F0A9F98C23E058012102F0A4F97349206F02F0A0F920001030642101F07BFC23E28423E058072102F095F99823E058012102F090F9BE
:4069C0008C23E058002102F08BF9644DA88EC0B2FDF786FDAE8E0A21300009F08FFE80B2624F3B5C5D050A21300009F00DFF89B2795C89032B000B435D491943206F02F058
:406A00006FF920001030642101F04AFCF2E17A23524AD35CDA0718D58423E058002102F05FF99823E058012102F05AF98C23E058012102F055F94B49206F02F051F920005D
:406A40001030642101F02CFCD4E11B0718D58423E058002102F044F99823E058012102F03FF98C23E058012102F03AF93E49206F02F036F920001030642101F011FCB9E124
:406A80008423E058072102F02BF99823E058012102F026F98C23E058002102F021F92F4DA88EC0B2FDF71CFDAE8E0A21300009F025FE80B22D4F3B5C5D050A21300009F0A0
:406AC000A3FE89B2795C89032B000B4328491943206F02F005F920001030642101F0E0FB88E17A231D4AD35CDA0718D58423E058002102F0F5F89823E058012102F0F0F8AB
:406B00008C23E058012102F0EBF81649206F02F0E7F820001030642101F0C2FB6AE11B0728D58423E058002102F0DAF89823E058012102F0D5F88C23E058012102F0D0F860
:406B40000949206F02F0CCF820001030642101F0A7FB4FE13C4B0020FC4D0200C8470020244E02003F1F00004F1F0000001D0020B93100008423E058072102F0B1F89823F1
:406B8000E058012102F0ACF88C23E058002102F0A7F8994DA88EC0B2FDF7A2FCAE8E0A21300009F0ABFD80B2944F3B5C5D050A21300009F029FE89B2795C89032B000B4356
:406BC0008F491943206F02F08BF820001030642101F066FB0EE17A23874AD35CDA0718D58423E058002102F07BF89823E058012102F076F88C23E058012102F071F88149C4
:406C0000206F02F06DF820001030642101F048FBF0E01B0718D58423E058002102F060F89823E058012102F05BF88C23E058012102F056F87449206F02F052F820001030A1
:406C4000642101F02DFBD5E08423E058072102F047F89823E058012102F042F88C23E058002102F03DF8644DA88EC0B2FDF738FCAE8E0A21300009F041FD80B25F4F3B5C53
:406C80005D050A21300009F0BFFD89B2795C89032B000B435A491943206F02F021F820001030642101F0FCFAA4E0534B9E8E0A21300009F023FD80B2504F395C4D050A2143
:406CC000300009F0A1FD89B2795C890329434C4B1943206F02F004F88423E058082101F0FFFF9823E058022101F0FAFF20001030642101F0D5FA7DE03F4B9E8E0A2130004B
:406D000009F0FCFC80B23D4F395C4D050A21300009F07AFD89B2795C89032943384B1943206F01F0DDFF8423E058072101F0D8FF9823E058012101F0D3FF20001030642123
:406D400001F0AEFA56E000213C232B4AD1545033E05801F0C5FF8423E058002101F0C0FF9823E058002101F0BBFFE06E2749303101F0B6FF2B696B61254B2B6100230022E5
:406D800002210B2001F0C8FB02212800FDF768FA30E020001030642101F082FA2AE01D4A1549FDF79BFD25E01A4B1B78012B21D18333E058002101F093FF9823E0580021B2
:406DC00001F08EFF11493031E06E01F089FF2000103001F07DFA02212800FDF741FA09E000220D49FDF714FA20005030FA21890001F056FAF8BDC046C8470020001D002042
:406E0000B93100003F1F00004F1F0000944F0200896300003C4A002002480020F8B505008469D64B9B78092B01D900F027FC9B00D34AD3589F46D34D05236B71D24BD34AA1
:406E4000D349012006F012F8A16F2800FDF706FC9423E058142101F043FF8023E058002101F03EFF0021206F01F03AFF200010300A2101F015FA00F001FCC24B9B7D0E2B76
:406E800001D900F0FBFB9B00C24AD3589F467A23BC4AD35C002B30D08C23E058012101F01FFFBD4BD86D421CDA65642109F0ACFC002903D1B949E06E01F012FF7A23B14A4F
:406EC000D35C1A0704D5B649206F01F009FF30E0DA0704D5B349206F01F002FF29E09A0704D5B149206F01F0FBFE22E05B0720D5AE49206F01F0F4FE1BE00022A64BDA6596
:406F00004023A04AD65A0A21300009F0F7FB80B2A74F3B5C5D050A21300009F075FC89B2795C89032B000B43A2491943206F01F0D7FE20001030642101F0B2F99EE37A2358
:406F4000904AD35CDA071BD5934BD86D421CDA65192109F059FC002903D19049E06E01F0BFFE8C23E058012101F0BAFE8423E058002101F0B5FE8B49206F01F0B1FE47E09D
:406F80001B071BD5844BD86D421CDA650A2109F03BFC002903D18149E06E01F0A1FE8C23E058012101F09CFE8423E058002101F097FE7B49206F01F093FE29E00022764B33
:406FC000DA658C23E058002101F08AFE8423E058072101F085FE0021606F01F081FE4023684AD65A0A21300009F088FB80B2704F3B5C5D050A21300009F006FC89B2795C8A
:4070000089032B000B436B491943206F01F068FE20001030C821490001F042F92EE37A23584AD35CDA071BD55B4BD86D421CDA65192109F0E9FB002903D15849E06E01F0CB
:407040004FFE8C23E058012101F04AFE8423E058002101F045FE5349206F01F041FE47E01B071BD54C4BD86D421CDA650A2109F0CBFB002903D14949E06E01F031FE8C23AA
:40708000E058012101F02CFE8423E058002101F027FE4349206F01F023FE29E000223E4BDA658C23E058002101F01AFE8423E058072101F015FE0021606F01F011FE4023B6
:4070C000304AD65A0A21300009F018FB80B2384F3B5C5D050A21300009F096FB89B2795C89032B000B4333491943206F01F0F8FD20001030C821490001F0D2F8BEE27A23FC
:40710000204AD35CDA071BD5234BD86D421CDA65192109F079FB002903D12049E06E01F0DFFD8C23E058012101F0DAFD8423E058002101F0D5FD1B49206F01F0D1FD65E0E2
:407140001B0739D5144BD86D421CDA65192109F05BFB002903D11149E06E01F0C1FD8C23E058012101F0BCFD8423E058002101F0B7FD0B49206F01F0B3FD47E03C4B002017
:40718000504E0200C8470020805202009C0700002C520200784E0200A82B0020944F02004F1F00003F1F0000061F00005B1F0000001D0020B93100000022D64BDA658C23A6
:4071C000E058002101F08CFD8423E058072101F087FD0021606F01F083FD4023CE4AD65A0A21300009F08AFA80B2CC4F3B5C5D050A21300009F008FB89B2795C89032B00F8
:407200000B43C7491943206F01F06AFD20001030C821490001F044F830E28423E058072101F05EFDBC4B5B8C002B24D0BA4D2800FDF79CF90021606F01F052FD2E7A0A21C1
